{
  "contractName": "Lethery",
  "abi": [
    {
      "constant": true,
      "inputs": [
        {
          "name": "",
          "type": "uint256"
        }
      ],
      "name": "games",
      "outputs": [
        {
          "name": "id",
          "type": "uint256"
        },
        {
          "name": "playersCount",
          "type": "uint256"
        },
        {
          "name": "beginsAt",
          "type": "uint256"
        },
        {
          "name": "endsAt",
          "type": "uint256"
        },
        {
          "name": "price",
          "type": "uint256"
        },
        {
          "name": "volume",
          "type": "uint256"
        },
        {
          "name": "isRedeemed",
          "type": "bool"
        },
        {
          "name": "isCurrent",
          "type": "bool"
        }
      ],
      "payable": false,
      "stateMutability": "view",
      "type": "function"
    },
    {
      "constant": true,
      "inputs": [],
      "name": "gamesLength",
      "outputs": [
        {
          "name": "",
          "type": "uint256"
        }
      ],
      "payable": false,
      "stateMutability": "view",
      "type": "function"
    },
    {
      "constant": true,
      "inputs": [],
      "name": "feeAddress",
      "outputs": [
        {
          "name": "",
          "type": "address"
        }
      ],
      "payable": false,
      "stateMutability": "view",
      "type": "function"
    },
    {
      "constant": true,
      "inputs": [],
      "name": "currentGame",
      "outputs": [
        {
          "name": "",
          "type": "uint256"
        }
      ],
      "payable": false,
      "stateMutability": "view",
      "type": "function"
    },
    {
      "constant": true,
      "inputs": [],
      "name": "winningNumbersLength",
      "outputs": [
        {
          "name": "",
          "type": "uint256"
        }
      ],
      "payable": false,
      "stateMutability": "view",
      "type": "function"
    },
    {
      "constant": true,
      "inputs": [],
      "name": "gamePrice",
      "outputs": [
        {
          "name": "",
          "type": "uint256"
        }
      ],
      "payable": false,
      "stateMutability": "view",
      "type": "function"
    },
    {
      "constant": true,
      "inputs": [],
      "name": "volume",
      "outputs": [
        {
          "name": "",
          "type": "uint256"
        }
      ],
      "payable": false,
      "stateMutability": "view",
      "type": "function"
    },
    {
      "constant": true,
      "inputs": [],
      "name": "fee",
      "outputs": [
        {
          "name": "",
          "type": "uint256"
        }
      ],
      "payable": false,
      "stateMutability": "view",
      "type": "function"
    },
    {
      "constant": true,
      "inputs": [],
      "name": "lastFeeVolume",
      "outputs": [
        {
          "name": "",
          "type": "uint256"
        }
      ],
      "payable": false,
      "stateMutability": "view",
      "type": "function"
    },
    {
      "constant": true,
      "inputs": [],
      "name": "admin",
      "outputs": [
        {
          "name": "",
          "type": "address"
        }
      ],
      "payable": false,
      "stateMutability": "view",
      "type": "function"
    },
    {
      "inputs": [
        {
          "name": "_feeAddress",
          "type": "address"
        },
        {
          "name": "_gamePrice",
          "type": "uint256"
        },
        {
          "name": "_fee",
          "type": "uint256"
        }
      ],
      "payable": false,
      "stateMutability": "nonpayable",
      "type": "constructor"
    },
    {
      "constant": false,
      "inputs": [],
      "name": "createGame",
      "outputs": [],
      "payable": false,
      "stateMutability": "nonpayable",
      "type": "function"
    },
    {
      "constant": true,
      "inputs": [
        {
          "name": "id",
          "type": "uint256"
        }
      ],
      "name": "getGameStartDate",
      "outputs": [
        {
          "name": "date",
          "type": "uint256"
        }
      ],
      "payable": false,
      "stateMutability": "view",
      "type": "function"
    },
    {
      "constant": true,
      "inputs": [
        {
          "name": "id",
          "type": "uint256"
        }
      ],
      "name": "getGameEndDate",
      "outputs": [
        {
          "name": "date",
          "type": "uint256"
        }
      ],
      "payable": false,
      "stateMutability": "view",
      "type": "function"
    },
    {
      "constant": true,
      "inputs": [
        {
          "name": "id",
          "type": "uint256"
        }
      ],
      "name": "getGameWinningNumbers",
      "outputs": [
        {
          "name": "numbers",
          "type": "uint256[]"
        }
      ],
      "payable": false,
      "stateMutability": "view",
      "type": "function"
    },
    {
      "constant": true,
      "inputs": [
        {
          "name": "id",
          "type": "uint256"
        }
      ],
      "name": "getGameVolume",
      "outputs": [
        {
          "name": "amount",
          "type": "uint256"
        }
      ],
      "payable": false,
      "stateMutability": "view",
      "type": "function"
    },
    {
      "constant": true,
      "inputs": [
        {
          "name": "id",
          "type": "uint256"
        },
        {
          "name": "number",
          "type": "uint256"
        }
      ],
      "name": "getGamePlayersByNumber",
      "outputs": [
        {
          "name": "players",
          "type": "address[]"
        }
      ],
      "payable": false,
      "stateMutability": "view",
      "type": "function"
    },
    {
      "constant": true,
      "inputs": [
        {
          "name": "id",
          "type": "uint256"
        }
      ],
      "name": "getGamePlayersCount",
      "outputs": [
        {
          "name": "count",
          "type": "uint256"
        }
      ],
      "payable": false,
      "stateMutability": "view",
      "type": "function"
    },
    {
      "constant": false,
      "inputs": [
        {
          "name": "number",
          "type": "uint256"
        }
      ],
      "name": "play",
      "outputs": [],
      "payable": true,
      "stateMutability": "payable",
      "type": "function"
    },
    {
      "constant": false,
      "inputs": [
        {
          "name": "number",
          "type": "uint256"
        }
      ],
      "name": "addWinningNumber",
      "outputs": [],
      "payable": false,
      "stateMutability": "nonpayable",
      "type": "function"
    },
    {
      "constant": false,
      "inputs": [],
      "name": "redeem",
      "outputs": [],
      "payable": true,
      "stateMutability": "payable",
      "type": "function"
    }
  ],
  "bytecode": "0x6060604052341561000f57600080fd5b604051606080610f5283398101604052808051906020019091908051906020019091908051906020019091905050336000806101000a81548173ffffffffffffffffffffffffffffffffffffffff021916908373ffffffffffffffffffffffffffffffffffffffff16021790555082600160006101000a81548173ffffffffffffffffffffffffffffffffffffffff021916908373ffffffffffffffffffffffffffffffffffffffff16021790555081600881905550806003819055506003600681905550601e6007819055506000600581905550505050610e5c806100f66000396000f300606060405260043610610112576000357c0100000000000000000000000000000000000000000000000000000000900463ffffffff168063117a5b901461011757806320eba3f2146101875780632f0f6e13146101b057806341275358146101e7578063556e72851461023c57806359d01e171461025f57806360b663bb146102965780636898f82b146102bf5780637255d729146102d757806377ec7416146102ec5780637a42e6261461031557806396bf15bf1461034c5780639f1f52ca14610375578063be040fb0146103f6578063c618a1e414610400578063c9a16f5f14610429578063ddca3f43146104a1578063e5f60c35146104ca578063ed23d06114610501578063f851a4401461052a575b600080fd5b341561012257600080fd5b610138600480803590602001909190505061057f565b6040518089815260200188815260200187815260200186815260200185815260200184815260200183151515158152602001821515151581526020019850505050505050505060405180910390f35b341561019257600080fd5b61019a6105e1565b6040518082815260200191505060405180910390f35b34156101bb57600080fd5b6101d160048080359060200190919050506105e7565b6040518082815260200191505060405180910390f35b34156101f257600080fd5b6101fa610607565b604051808273ffffffffffffffffffffffffffffffffffffffff1673ffffffffffffffffffffffffffffffffffffffff16815260200191505060405180910390f35b341561024757600080fd5b61025d600480803590602001909190505061062d565b005b341561026a57600080fd5b610280600480803590602001909190505061074b565b6040518082815260200191505060405180910390f35b34156102a157600080fd5b6102a961076b565b6040518082815260200191505060405180910390f35b6102d56004808035906020019091905050610771565b005b34156102e257600080fd5b6102ea610875565b005b34156102f757600080fd5b6102ff610a3e565b6040518082815260200191505060405180910390f35b341561032057600080fd5b6103366004808035906020019091905050610a44565b6040518082815260200191505060405180910390f35b341561035757600080fd5b61035f610a64565b6040518082815260200191505060405180910390f35b341561038057600080fd5b61039f6004808035906020019091908035906020019091905050610a6a565b6040518080602001828103825283818151815260200191508051906020019060200280838360005b838110156103e25780820151818401526020810190506103c7565b505050509050019250505060405180910390f35b6103fe610b26565b005b341561040b57600080fd5b610413610c6c565b6040518082815260200191505060405180910390f35b341561043457600080fd5b61044a6004808035906020019091905050610c72565b6040518080602001828103825283818151815260200191508051906020019060200280838360005b8381101561048d578082015181840152602081019050610472565b505050509050019250505060405180910390f35b34156104ac57600080fd5b6104b4610ce6565b6040518082815260200191505060405180910390f35b34156104d557600080fd5b6104eb6004808035906020019091905050610cec565b6040518082815260200191505060405180910390f35b341561050c57600080fd5b610514610d0c565b6040518082815260200191505060405180910390f35b341561053557600080fd5b61053d610d12565b604051808273ffffffffffffffffffffffffffffffffffffffff1673ffffffffffffffffffffffffffffffffffffffff16815260200191505060405180910390f35b60096020528060005260406000206000915090508060000154908060020154908060030154908060040154908060060154908060070154908060080160009054906101000a900460ff16908060080160019054906101000a900460ff16905088565b60075481565b600060096000838152602001908152602001600020600701549050919050565b600160009054906101000a900473ffffffffffffffffffffffffffffffffffffffff1681565b60008060009054906101000a900473ffffffffffffffffffffffffffffffffffffffff1673ffffffffffffffffffffffffffffffffffffffff163373ffffffffffffffffffffffffffffffffffffffff1614151561068a57600080fd5b6000806005541415151561069d57600080fd5b60096000600554815260200190815260200160002090508060040154421115156106c657600080fd5b826201869f811115156106d857600080fd5b64e8d4a50fff81111515156106ec57600080fd5b6009600060055481526020019081526020016000209250600654836005018054905010151561071a57600080fd5b8260050180548060010182816107309190610d8b565b91600052602060002090016000869091909150555050505050565b600060096000838152602001908152602001600020600201549050919050565b60055481565b6000816201869f8111151561078557600080fd5b64e8d4a50fff811115151561079957600080fd5b6009600060055481526020019081526020016000209150816004015442111515156107c357600080fd5b8160060154341415156107d557600080fd5b3482600701600082825401925050819055506001826002016000828254019250508190555081600101600084815260200190815260200160002080548060010182816108219190610db7565b9160005260206000209001600033909190916101000a81548173ffffffffffffffffffffffffffffffffffffffff021916908373ffffffffffffffffffffffffffffffffffffffff16021790555050505050565b6000806000809054906101000a900473ffffffffffffffffffffffffffffffffffffffff1673ffffffffffffffffffffffffffffffffffffffff163373ffffffffffffffffffffffffffffffffffffffff161415156108d357600080fd5b600060096000600554815260200190815260200160002090508060080160019054906101000a900460ff1615151561090a57600080fd5b429250600a8301915060056000815460010191905081905550600554600960006005548152602001908152602001600020600001819055508260096000600554815260200190815260200160002060030181905550816009600060055481526020019081526020016000206004018190555060085460096000600554815260200190815260200160002060060181905550600060096000600554815260200190815260200160002060080160006101000a81548160ff021916908315150217905550600060096000600554815260200190815260200160002060070181905550600160096000600554815260200190815260200160002060080160016101000a81548160ff021916908315150217905550600060096000600554815260200190815260200160002060020181905550505050565b60065481565b600060096000838152602001908152602001600020600301549050919050565b60085481565b610a72610de3565b600960008481526020019081526020016000206001016000838152602001908152602001600020805480602002602001604051908101604052809291908181526020018280548015610b1957602002820191906000526020600020905b8160009054906101000a900473ffffffffffffffffffffffffffffffffffffffff1673ffffffffffffffffffffffffffffffffffffffff1681526020019060010190808311610acf575b5050505050905092915050565b60008060008060055414151515610b3c57600080fd5b6009600060055481526020019081526020016000209050806004015442111515610b6557600080fd5b600060096000600554815260200190815260200160002090508060080160009054906101000a900460ff16151515610b9c57600080fd5b60096000600554815260200190815260200160002093506006548460050180549050141515610bca57600080fd5b610be38460020154600354610d3790919063ffffffff16565b9250610bfc838560070154610d7290919063ffffffff16565b600481905550600160009054906101000a900473ffffffffffffffffffffffffffffffffffffffff1673ffffffffffffffffffffffffffffffffffffffff166108fc6004549081150290604051600060405180830381858888f193505050501515610c6657600080fd5b50505050565b60025481565b610c7a610df7565b60096000838152602001908152602001600020600501805480602002602001604051908101604052809291908181526020018280548015610cda57602002820191906000526020600020905b815481526020019060010190808311610cc6575b50505050509050919050565b60035481565b600060096000838152602001908152602001600020600401549050919050565b60045481565b6000809054906101000a900473ffffffffffffffffffffffffffffffffffffffff1681565b6000806000841415610d4c5760009150610d6b565b8284029050828482811515610d5d57fe5b04141515610d6757fe5b8091505b5092915050565b6000828211151515610d8057fe5b818303905092915050565b815481835581811511610db257818360005260206000209182019101610db19190610e0b565b5b505050565b815481835581811511610dde57818360005260206000209182019101610ddd9190610e0b565b5b505050565b602060405190810160405280600081525090565b602060405190810160405280600081525090565b610e2d91905b80821115610e29576000816000905550600101610e11565b5090565b905600a165627a7a723058202cdbbd537c980ad43f8bd209e025add78eb5f8993cd4733bcf11583c40ca603a0029",
  "source": "pragma solidity ^0.4.19;\n\nimport 'zeppelin-solidity/contracts/math/SafeMath.sol';\n\ncontract Lethery {\n\n    using SafeMath for uint;\n\n    address public admin; // addres of Lethery admin\n    address public feeAddress; // the address of the fees holder\n    uint public volume; // total amount of ETH accumulated from all games\n    uint public fee; // (5 / 100) / Game volume\n    uint public lastFeeVolume; // last fee in ETH paid to feeAddress\n    uint public currentGame; // sha3 hash of current game\n    uint public winningNumbersLength; // allowed number of winning numbers\n    uint public gamesLength; // the length in solidity time values\n    uint public gamePrice; // the price of playing the games\n    \n    struct Game {\n        uint id; // sha3 hash of this game marked by its start date and end date \n        mapping (uint => address[]) players; // chosen 6 to 12 digits number to addresses of players who chose that number\n        uint playersCount;\n        uint beginsAt; // UNIX timestamp\n        uint endsAt; // UNIT timestamp\n        uint[] winningNumbers; // the numbers that account for this game\n        uint price; // the price for this game in ETH\n        uint volume; // the ETH volume for this game\n        bool isRedeemed; // whether the game has been redeemed or not\n        bool isCurrent;\n    }\n    \n    mapping (uint => Game) public games;\n    \n    modifier noCurrentGame {\n        Game storage game = games[currentGame];\n        \n        require(!game.isCurrent);\n        \n        _;\n    }\n    \n    modifier gameIsOver {\n        require(currentGame != 0);\n        \n        Game storage game = games[currentGame];\n        \n        require(now > game.endsAt);\n        \n        _;\n    }\n    \n    modifier gameIsNotRedeemed {\n        Game storage game = games[currentGame];\n        \n        require(!game.isRedeemed);\n        \n        _;\n    }\n    \n    modifier isAdmin {\n        require(msg.sender == admin);\n        \n        _;\n    }\n    \n    modifier isValidNumber (uint number) {\n        require(number > 99999); // number must have +6 digits\n        require(number <= 999999999999); // number must have up to 12 digits\n        \n        _;\n    }\n    \n    function Lethery (address _feeAddress, uint _gamePrice, uint _fee) public {\n        admin = msg.sender;\n        feeAddress = _feeAddress;\n        gamePrice = _gamePrice;\n        fee = _fee;\n        winningNumbersLength = 3;\n        gamesLength = 30;\n        currentGame = 0;\n    }\n    \n    function createGame () public isAdmin noCurrentGame {\n        uint _beginsAt = now;\n        uint _endsAt = _beginsAt + 10 seconds;\n        \n        ++currentGame;\n        \n        games[currentGame].id = currentGame;\n        games[currentGame].beginsAt = _beginsAt;\n        games[currentGame].endsAt = _endsAt;\n        games[currentGame].price = gamePrice;\n        games[currentGame].isRedeemed = false;\n        games[currentGame].volume = 0;\n        games[currentGame].isCurrent = true;\n        games[currentGame].playersCount = 0;\n    }\n    \n    function getGameStartDate(uint id) view public returns (uint date) {\n        return games[id].beginsAt;\n    }\n    \n    function getGameEndDate(uint id) view public returns (uint date) {\n        return games[id].endsAt;\n    }\n    \n    function getGameWinningNumbers(uint id) view public returns (uint[] numbers) {\n        return games[id].winningNumbers;\n    }\n    \n    function getGameVolume(uint id) view public returns (uint amount) {\n        return games[id].volume;\n    }\n    \n    function getGamePlayersByNumber(uint id, uint number) view public returns (address[] players) {\n        return games[id].players[number];\n    }\n\n    function getGamePlayersCount(uint id) view public returns (uint count) {\n        return games[id].playersCount;\n    }\n    \n    function play (uint number) public payable isValidNumber (number) {\n        Game storage game = games[currentGame];\n        \n        require(now <= game.endsAt);\n        \n        require(msg.value == game.price);\n        \n        game.volume += msg.value;\n        game.playersCount += 1;\n        game.players[number].push(msg.sender);\n    }\n    \n    function addWinningNumber (uint number) public isAdmin gameIsOver isValidNumber (number) {\n        Game storage game = games[currentGame];\n        \n        require(game.winningNumbers.length < winningNumbersLength);\n        \n        game.winningNumbers.push(number);\n    }\n    \n    function redeem () payable public gameIsOver gameIsNotRedeemed {\n        Game storage game = games[currentGame];\n        \n        require(game.winningNumbers.length == winningNumbersLength);\n        \n        uint _fee = fee.mul(game.playersCount);\n        lastFeeVolume = game.volume.sub(_fee);\n        \n        require(feeAddress.send(lastFeeVolume));\n        \n        // game.volume -= lastFeeVolume;\n    }\n}",
  "sourcePath": "/Users/GustavoIbarra/Projects/Solidity/lethery/contracts/Lethery.sol",
  "compiler": {
    "name": "solc",
    "version": "0.4.19+commit.c4cbbb05.Emscripten.clang"
  },
  "schemaVersion": "1.0.1",
  "updatedAt": "2018-02-21T23:26:59.488Z"
}